:100000000C9427090C9458090C9458090C9458091D
:100010000C9458090C9458090C9458090C945809DC
:100020000C9458090C9458090C9458090C945809CC
:100030000C9458090C9458090C9458090C945809BC
:100040000C9458090C9458090C9458090C945809AC
:100050000C9458090C9458090C9458090C94AA1B38
:100060000C9458090C94741B0C944A1B0C9458095A
:100070000C9458090C9458090C9458090C9458097C
:100080000C9458090C9458090C9458090C94181D98
:100090000C9458090C9458090C9458090C94F41BAE
:1000A0000C9458090C9458090C9458090C9458094C
:1000B0000C9458090C9458090C9458090C9458093C
:1000C0000C9458090C9458090C9458090C9458092C
:1000D0000C9458090C9458090C9458090C9458091C
:1000E0000C945809000000000B00010000020B0BEB
:1000F00004F6030006050B02F60700070C0B02F6D8
:100100001200080C0B01F61E00070B0B02F628006C
:10011000070A0B02F7310003050B04F63300020D4A
:100120000B05F63700020D0B04F63B0007070B0228
:10013000F6420007070B02F8490003050B02FF4BCC
:100140000009010B01FB4D0002020B04FF4E0007EA
:100150000D0B02F55A00070B0B02F66400050B0BA2
:1001600003F66B00070B0B02F67500080B0B01F68C
:100170008000060B0B03F68900070B0B02F69300B9
:10018000070B0B02F69D00070B0B02F6A700070BEF
:100190000B02F6B100070B0B02F6BB0002080B04C2
:1001A000F9BD00030B0B03F9C20008080B01F8CAE4
:1001B0000009040B01FACF0009080B01F8D8000769
:1001C0000A0B02F7E100080C0B02F6ED000B0A0B1C
:1001D00000F7FB00090A0B01F70701090A0B01F7F9
:1001E0001301090A0B01F71F01090A0B01F72B0183
:1001F000090A0B01F737010A0A0B01F74401090A42
:100200000B01F75001050A0B03F75701080A0B020F
:10021000F76101090A0B01F76D01080A0B02F77774
:10022000010B0A0B00F78501090A0B01F79101097F
:100230000A0B01F79D01080A0B01F7A701090D0B35
:1002400001F7B601090A0B01F7C201070A0B02F711
:10025000CB01090A0B01F7D701090A0B01F7E301EA
:100260000B0A0B00F7F1010B0A0B00F7FF01090A5B
:100270000B01F70B02090A0B01F71702070A0B0221
:10028000F72002020D0B05F62402070D0B02F530D4
:1002900002020D0B04F6340207050B02F639020BBD
:1002A000010B00023B0203030B03F53D0209080B9F
:1002B00001F94602090B0B01F6530207080B02F97C
:1002C0005A02090B0B01F6670208080B01F96F02CD
:1002D000060B0B03F67802090B0B01F98502090BDB
:1002E0000B01F69202070A0B02F79B02050D0B03A6
:1002F000F7A402080B0B02F6AF02070B0B02F6B9CC
:100300000209080B01F9C20209080B01F9CB020925
:10031000080B01F9D402090B0B01F9E102090B0BDF
:1003200001F9EE0207080B03F9F50207080B02F9C1
:10033000FC02080A0B02F7060308080B01F90E037A
:1003400009080B01F9170309080B01F92003090833
:100350000B01F92903090B0B01F9360307080B02FE
:10036000F93D03030D0B04F64203010D0B05F644A2
:1003700003030D0B04F6490307030B02FAAAA80CAA
:10038000ED2492482448912FE4897F285122400887
:100390003E6240300E0181C3BE08087112238023E3
:1003A000B80E224470388102061A6546C8ECE9246A
:1003B0005AAAA940A9555A8010224BE305110010F2
:1003C0002047F10204006B48FF00F0020810608132
:1003D00004082041020800388A0C183060C1828865
:1003E000E02728421084213E388A081020820861C4
:1003F00003F87C0602021C06010101423C18A2928D
:100400008A28BF0821C07C8103E44040810388E042
:100410001E41040B98B0C1C288E0FE04082040824F
:1004200004082040388A0C14471141838CE0388A34
:100430001C1868CE810413C0F00F6C00D2D20003E8
:1004400004186060180403FF80001FF040180300C8
:10045000602060C0803D840830C2000000303C460F
:10046000828EB2A2A29F8080403C3C0140280901BC
:1004700010420FC104409E3CFE21904867E20902F1
:100480008141FF803EB0F0300804020080608F8020
:10049000FE219068140A050283437F00FF20900824
:1004A00087C221008140FFC0FFA0500887C2210001
:1004B000804078001E986C0A008020F80B0260874C
:1004C000C0E3A0904827F20904824171C0F90842B4
:1004D000108427C01F02020202028282C678E3A1B2
:1004E000110905832108844170C0E040404040402C
:1004F000414141FFE0EC194528A4A4949112024027
:100500005C1CC3B0944A249249148A4370801E3103
:100510009050180C060282630F00FE434141427C5A
:10052000404040F01C319050180C060282631F04BA
:10053000079230FE2190482423E110844170C03A94
:10054000CD0A030180C1C778FFC46221008040202A
:1005500010081F00E3A090482412090482220E0014
:10056000F1E81082104210220480500C0080F1E863
:1005700009112544A8550CA18C318430E3A0888250
:100580008080C090444171C0E3A0888281404020B7
:1005900010081F00FD0A208104102183FCEAAAAA8A
:1005A000C0808103020404080810102020D555558E
:1005B000C01051222820FFE088807E008047EC1484
:1005C0000A0CFBC020100BC61205028140B0B78098
:1005D0003A8E0C0810109E03008047A4340A0502CE
:1005E00081218F603C4381FF8080613E3D043E411C
:1005F0000410410F803DA1A0502814090C7A01017C
:100600008780C020100BC6320904824120B8E01058
:1006100001C08102040811FC103E10842108423FF1
:1006200000C040404F445870484442C77020408149
:100630000204081023F8B7646231188C4623915ED7
:1006400031904824120905C73E31A030180C058CA2
:100650007CDE309028140A0584BC402038003DA17F
:10066000A0502814090C7A010080E0CEA182040871
:10067000107C3A8D0B80F070DE4040FC40404040E2
:1006800040413EC34141414141433DE3A09084424A
:1006900020A05010E3C0924B2592A99844E3310565
:1006A0000101411105C7E3A090844240A0601010F1
:1006B000083E00FD0820820810BF2924A24926FF19
:1006C000F889248A492C6124305061737365642051
:1006D000004661696C2000506173736564200046B8
:1006E00061696C200000000000003E5B4F5B3E3EF5
:1006F0006B4F6B3E1C3E7C3E1C183C7E3C181C57CE
:100700007D571C1C5E7F5E1C00183C1800FFE7C371
:10071000E7FF0018241800FFE7DBE7FF30483A0640
:100720000E2629792926407F050507407F05253FAC
:100730005A3CE73C5A7F3E1C1C08081C1C3E7F1498
:10074000227F22145F5F005F5F06097F017F0066E2
:1007500089956A606060606094A2FFA29408047E3C
:10076000040810207E201008082A1C08081C2A08EB
:10077000081E101010100C1E0C1E0C30383E3830A5
:10078000060E3E0E06000000000000005F000000A4
:1007900007000700147F147F14242A7F2A122313D2
:1007A00008646236495620500008070300001C22E6
:1007B00041000041221C002A1C7F1C2A08083E0818
:1007C0000800807030000808080808000060600019
:1007D00020100804023E5149453E00427F4000720D
:1007E000494949462141494D331814127F10274584
:1007F0004545393C4A4949314121110907364949A2
:100800004936464949291E000014000000403400C2
:100810000000081422411414141414004122140876
:1008200002015909063E415D594E7C1211127C7F2E
:10083000494949363E414141227F4141413E7F493C
:100840004949417F090909013E414151737F080827
:10085000087F00417F41002040413F017F08142272
:10086000417F404040407F021C027F7F0408107F90
:100870003E4141413E7F090909063E4151215E7FCB
:1008800009192946264949493203017F01033F409E
:1008900040403F1F2040201F3F4038403F63140826
:1008A000146303047804036159494D43007F4141B7
:1008B000410204081020004141417F04020102046A
:1008C0004040404040000307080020545478407FD7
:1008D000284444383844444428384444287F385411
:1008E00054541800087E090218A4A49C787F0804B8
:1008F000047800447D40002040403D007F102844A3
:100900000000417F40007C047804787C080404786F
:100910003844444438FC1824241818242418FC7C37
:1009200008040408485454542404043F44243C401C
:1009300040207C1C2040201C3C4030403C4428107F
:1009400028444C9090907C4464544C4400083641B8
:100950000000007700000041360800020102040296
:100960003C2623263C1EA1A161123A4040207A3841
:1009700054545559215555794122545478422155A2
:1009800054784020545579400C1E527212395555F6
:100990005559395454545939555454580000457CCC
:1009A000410002457D420001457C407D1211127DCF
:1009B000F0282528F07C545545002054547C547C64
:1009C0000A097F4932494949323A4444443A324A51
:1009D0004848303A4141217A3A42402078009DA06F
:1009E000A07D3D4242423D3D4040403D3C24FF24ED
:1009F00024487E4943662B2FFC2F2BFF0929F62024
:100A0000C0887E090320545479410000447D413060
:100A100048484A32384040227A007A0A0A727D0DEC
:100A200019317D2629292F28262929292630484DA4
:100A30004020380808080808080808382F10C8ACF3
:100A4000BA2F102834FA00007B000008142A142260
:100A500022142A14085500550055AA55AA55AAFF74
:100A600055FF55FF000000FF00101010FF00141488
:100A700014FF001010FF00FF1010F010F0141414F9
:100A8000FC001414F700FF0000FF00FF1414F4042E
:100A9000FC141417101F10101F101F1414141F0023
:100AA000101010F0000000001F101010101F101088
:100AB0001010F010000000FF101010101010101097
:100AC00010FF10000000FF140000FF00FF00001FD7
:100AD00010170000FC04F414141710171414F40475
:100AE000F40000FF00F714141414141414F700F7A2
:100AF000141414171410101F101F141414F41410CD
:100B000010F010F000001F101F0000001F14000064
:100B100000FC140000F010F01010FF10FF1414146B
:100B2000FF141010101F00000000F010FFFFFFFF67
:100B3000FFF0F0F0F0F0FFFFFF0000000000FFFF0B
:100B40000F0F0F0F0F3844443844FC4A4A4A347E92
:100B500002020606027E027E026355494163384462
:100B6000443C04407E201E2006027E020299A5E736
:100B7000A5991C2A492A1C4C7201724C304A4D4DD1
:100B8000303048784830BC625A463D3E49494900B9
:100B90007E0101017E2A2A2A2A2A44445F444440D5
:100BA000514A444040444A51400000FF0103E08064
:100BB000FF000008086B6B083612362436060F0952
:100BC0000F06000018180000001010003040FF0150
:100BD00001001F01011E00191D1712003C3C3C3C86
:100BE0000000000000000103070F1F3F7F0080C0CE
:100BF000E0F0F8FCFE00000A0B02090C0D0E0807DD
:100C000003040100000000000000000000000000DC
:100C100000000000000000000000000000000000D4
:100C20000012111000000000000000000000000091
:100C30000000000000000000000000DB40A4A62E21
:100C4000AFDA0281DA1281DA02818F2000A1C8D3E3
:100C500000408DAED580A8000060000000000000BC
:100C60000000000000000000E000000000000000A4
:100C700000000000000001E0000000000000000093
:100C8000000000000001F000000000000000000073
:100C90000000000003F00000000000000000000061
:100CA00000000007F000000000000000000000004D
:100CB000000007F800000000000000000000000035
:100CC000000FF800000003C0007E000001E0007F7C
:100CD0000FF800000003C000FE000001E000FFEF7D
:100CE000F800000003C000FE000001E000FFFFF874
:100CF00000000003C000F00000000F007FFE7FC076
:100D0000000003C000F00000000F003FFE7FF83F2E
:100D1000F1FBCFFCFEF3BC3DEFE01FFE7FFF7FFB4E
:100D2000FFDFFEFEFFBC3DEFE01FC6FFFF7FFBFFC6
:100D3000DFFEFEFFBC3DEFE00FE3C7FE787BC3DEC6
:100D40001EF0FFBC3DEF0007FF87FC787BC3DE1E73
:100D5000F0F83C3DEF0001FFFFF0007BC3C01EF048
:100D6000F03C3DEF0001F37FE03FFBC3CFFEF0F02E
:100D70003C3DEF0003E33F807FFBC3DFFEF0F03C30
:100D80003DEF0007E73C00787BC3DE1EF0F03C3D02
:100D9000EF0007FFBE00787BC3DE1EF0F03C3DEFA6
:100DA0000007FFFE00787BC3DE1EF0F03C3DEF0045
:100DB0000FFFFE007FFBFFDFFEF0F03FFDEFE00FD7
:100DC000FFFF007FFBFFDFFEF0F03FFDEFE00FF9DC
:100DD000FF003E79F9CF9EF0F01F3DE7E01FF1FFE5
:100DE0000000000000000000000000001F80FF0065
:100DF0007FFFFFFFFFFFFFFFFFFFE01C007F007F83
:100E0000FFFFFFFEB46D888D18E000001F007FFF1C
:100E1000FFFFFE95AD7DB577E000000F007FFFFF7F
:100E2000FFFEA5AD9D8D19E0000006007FFFFFFFCE
:100E3000FEB5ADEDB57EE0000000000001800000D1
:100E4000000000000000000380000000000000001F
:100E5000000007C000000000000000000007C00004
:100E600000000000000000000FC0000000000000B3
:100E70000000001FE00000000000000000001FE074
:100E80000000000000000000003FE0000000000043
:100E9000000000003FF00000000000000000007FA4
:100EA000F0000000000000001FF87FF000000000CC
:100EB0000000003FFE7FF0000000000000003FFF48
:100EC0007FF0000000000000001FFFFBE0000000BA
:100ED000000000000FFFF9FFC00000000000000F3D
:100EE000FFF9FFF800000000000007FFF1FFFF001E
:100EF000000000000003FC73FFFF80000000000002
:100F000001FE3FFFFF80000000000000FF1E0FFFFA
:100F1000000000000000007FFE1FFC000000000039
:100F200000003FFFFFF8000000000000000FDFFF9F
:100F3000E0000000000000001F19FFC000000000DA
:100F40000000003F3CFF00000000000000007E7C2D
:100F5000F800000000000000007FFE7C00000000A0
:100F600000000000FFFFFC0000000000000000FF88
:100F7000FFFE0000000000000000FFFFFE00000078
:100F80000000000001FFEFFE000000000000000173
:100F9000FFCFFE0000000000000003FF07FE00007E
:100FA000000000000003FC07FE000000000000003D
:100FB00003F003FE00000000000000018000FE00BE
:100FC0000000000000000000007E000000000000A3
:100FD000000000003E000000000000000000000CC7
:100FE000000000000000078000FC000003C00000BB
:100FF00000078001FC000003C0000000078001FC26
:10100000000003C0000000078001E00000001E0097
:101010000000078001E00000001E007FE3F79FF959
:10102000FDE7787BDFC0FFF7FFBFFDFDFF787BDFCB
:10103000C0FFF7FFBFFDFDFF787BDFC0F0F787BC87
:101040003DE1FF787BDE00F0F787BC3DE1F0787B87
:10105000DE0000F787803DE1E0787BDE007FF787E8
:101060009FFDE1E0787BDE00FFF787BFFDE1E078E0
:101070007BDE00F0F787BC3DE1E0787BDE00F0F737
:1010800087BC3DE1E0787BDE00F0F787BC3DE1E026
:10109000787BDE00FFF7FFBFFDE1E07FFBDFC0FFF5
:1010A000F7FFBFFDE1E07FFBDFC07CF3F39F3DE195
:1010B000E03E7BCFC0000000000000000000000008
:1010C000FFFFFFFFFFFFFFFFFFFFC0FFFFFFFFFD71
:1010D00068DB111A31C0FFFFFFFFFD2B5AFB6AEFDF
:1010E000C0FFFFFFFFFD4B5B3B1A33C0FFFFFFFF5D
:1010F000FD6B5BDB6AFDC07D03E400207E12535371
:10110000443133303620616C6C6F636174696F6E8B
:10111000206661696C6564005061737365640046A4
:1011200061696C6564004D617263682030783030AD
:10113000004D6172636820307846460046696C6CE9
:1011400020307841410046696C6C2030783535009C
:10115000596573205F5F5F20204E6F0041676169B2
:101160006E3F0023206F6620526570733F00546508
:1011700073743F00546573746572004D31303020D4
:101180005352414D0000002200250028002B002E64
:10119000003100340002010000050108010B0100CC
:1011A000002100240027002A002D00300033000118
:1011B000010000040107010A0105050505070508EE
:1011C000080808020202020A0A08080404040401CA
:1011D00001010101010101030303030303030304EC
:1011E0000707070C0C0C0C0C0C0C0C02020202067C
:1011F000060606060606060B0B0B0B0B0B0B0B016C
:101200000210202008081020401020408002010217
:1012100001080402010102040810204080804020DF
:10122000100804020180040201804020100804021A
:101230000108040201010204081020408001020498
:1012400008102040802200FF21004E1DC6231124DB
:101250001FBECFEFD1E2DEBFCDBF00E00CBF24E068
:10126000A0E9B2E001C01D92A836B207E1F712E092
:10127000A0E0B2E0E2E5FDE400E00BBF02C00790B1
:101280000D92A039B107D9F719E0C6E2D9E000E024
:1012900006C021970109802FFE010E947424C532E7
:1012A000D10780E00807A9F70E94E91D0C94982651
:1012B0000C94000090E0FC01E150FE4E2491875414
:1012C0009E4EFC018491882399F090E0880F991F2D
:1012D000FC01E156FE4EA591B491FC01EB57FE4E88
:1012E000859194918FB7F894EC91E22BEC938FBF9A
:1012F00008950895AF92BF92CF92DF92EF92FF923E
:101300000F931F93CF93DF936C017B018B01040F2D
:10131000151FEB015E01AE18BF08C017D10759F0C9
:101320006991D601ED91FC910190F081E02DC6010B
:101330001995892B79F7C501DF91CF911F910F91F5
:10134000FF90EF90DF90CF90BF90AF900895FC0199
:10135000448155816081718185E294E0CBCF08950D
:101360000895FC01538D448D252F30E0842F90E0AB
:10137000821B930B541710F0CF9608950197089590
:10138000FC01918D828D981761F0A28DAE0FBF2F59
:10139000B11D5D968C91928D9F5F9F73928F90E0AF
:1013A00008958FEF9FEF0895FC01918D828D98171E
:1013B00031F0828DE80FF11D858D90E008958FEF5B
:1013C0009FEF0895FC01918D228D892F90E0805C24
:1013D0009F4F821B91098F73992708958EE593E0A3
:1013E000F1DF21E0892B09F420E0822F0895FC0130
:1013F000A48DA80FB92FB11DA35ABF4F2C91848D76
:1014000090E001968F739927848FA689B7892C93D2
:10141000A089B1898C91837080648C93938D848D25
:10142000981306C00288F389E02D80818F7D808328
:101430000895EF92FF920F931F93CF93DF93EC01E8
:1014400081E0888F9B8D8C8D98131AC0E889F9896B
:10145000808185FF15C09FB7F894EE89FF8960836E
:10146000E889F98980818370806480839FBF81E0EF
:1014700090E0DF91CF911F910F91FF90EF90089531
:10148000F62E0B8D10E00F5F1F4F0F731127E02E0C
:101490008C8D8E110BC00FB607FCFACFE889F98945
:1014A000808185FFF5CFCE01A2DFF2CFEB8DEC0F6F
:1014B000FD2FF11DE35AFF4FF0829FB7F8940B8F79
:1014C000EA89FB8980818062D0CFCF93DF93EC01E2
:1014D000888D8823B1F0AA89BB89E889F9898C9124
:1014E00085FD03C0808186FD0CC00FB607FCF7CFD9
:1014F0008C9185FFF2CF808185FFEDCFCE0177DF24
:10150000EACFDF91CF91089580E090E0892B21F020
:1015100065DF81110E94000080E090E0892B49F096
:1015200080E090E0892B29F00E94000081110E9448
:10153000000080E090E0892B49F080E090E0892B6A
:1015400029F00E94000081110E94000080E090E0DC
:10155000892B49F080E090E0892B29F00E9400005F
:1015600081110C9400000895282F30E0F901EB5010
:10157000F44F9491F901E150FE4E449127543E4EB0
:10158000F9012491222309F435C0992311F19150D6
:101590009231F8F4E92FF0E08827EE52F54F8F4FA3
:1015A0000C947424030B070BE40AFB0AFF0AE90AF4
:1015B0000A0B100B140B1A0B1E0B220B280B2C0BF7
:1015C000E90A300B360B3A0B809180008F778093BD
:1015D0008000E22FF0E0EE0FFF1FEB57FE4EA591CB
:1015E000B4918FB7F894EC91611148C040954E23A7
:1015F0004C938FBF0895809180008F7DE8CF8091BC
:101600008000877FE4CF84B58F7784BDE2CF84B537
:101610008F7DFBCF8091B0008F778093B000D9CFC2
:101620008091B0008F7DF9CF809190008F7780936B
:101630009000CFCF809190008F7DF9CF8091900066
:10164000877FF5CF8091A0008F778093A000C1CFD6
:101650008091A0008F7DF9CF8091A000877FF5CF8A
:10166000809120018F7780932001B3CF809120015A
:101670008F7DF9CF80912001877FF5CF4E2BB8CF9A
:101680003FB7F89480913E0390913F03A0914003AF
:10169000B091410326B5A89B05C02F3F19F00196D4
:1016A000A11DB11D3FBFBA2FA92F982F8827BC01BC
:1016B000CD01620F711D811D911D42E0660F771FE4
:1016C000881F991F4A95D1F708958F929F92AF92E4
:1016D000BF92CF92DF92EF92FF924B015C01D0DF7D
:1016E0006B017C01CDDF6C197D098E099F09683E75
:1016F000734081059105B0F321E0821A9108A10899
:10170000B10888EEC80E83E0D81EE11CF11C8114DC
:101710009104A104B10431F7FF90EF90DF90CF90D6
:10172000BF90AF909F908F900895EF92FF920F938C
:101730001F93CF93DF93EC01EC80FD806E157F0546
:101740000CF070C057FF04C0240F351F50E040E07C
:101750008E819F81FA01E20FF31F8E179F071CF401
:101760009C01241B350B121613060CF05BC0922F44
:10177000842F8695869586958E9DD0018F9DB00D80
:1017800011246A0F7B1FAF8DB8A1A60FB71F47703A
:1017900049F188E0841B482F682F70E0FB01E3517A
:1017A000F44FE491281708F063C0621B71092FEF12
:1017B00030E002C0359527956A95E2F7E2230130C3
:1017C000110539F0B0F10230110561F58C91E8276F
:1017D00002C08C91E82BEC93941720F12C813D8171
:1017E000A20FB31FE92FE41BE83078F00230110597
:1017F00021F58E2F9C9190959C932C813D81A20F79
:10180000B31F88508830B0F7E770EE2359F0F0E04E
:10181000EB51F44FE49101301105F9F010F1023071
:10182000110519F1DF91CF911F910F91FF90EF906A
:101830000895E0958C91E823CECF81E00115110544
:1018400009F480E081959E2F8C932C813D81A20F1D
:10185000B31F98509830C0F7D7CF8C91E82BEC93FA
:10186000E1CFE0958C91E823FACF8C91E827F7CF70
:101870000130110509F4ADCFE0F20230110509F491
:10188000A5CFAE0DBF1DAECF0F931F93CF93DF93A8
:1018900077FF04C0260F371F70E060E0DC0114966C
:1018A000CD91DC91FB01E20FF31FCE17DF071CF493
:1018B0009E01261B370B121613064CF5FA0157FD35
:1018C0003796A3E0F595E795AA95E1F7EC9FD0014F
:1018D000ED9FB00DFC9FB00D11246A0F7B1FDC0142
:1018E0005F96ED91FC91E60FF71F4770552781E059
:1018F00090E001C0880F4A95EAF7482F01301105A2
:1019000059F0A8F02E0F3F1F02301105E1F0DF91D2
:10191000CF911F910F9108952E0F3F1FE217F307EC
:10192000B1F38191DF011197842B8C93F7CF8095D0
:101930002E0F3F1FE217F30751F39191DF0111972B
:1019400098239C93F7CFE217F30709F38191DF0106
:10195000119784278C93F7CF0F931F93FA01DC0123
:1019600056964C9156974230E1F0433091F1413018
:1019700059F514964D915C91DA01AE1BBF0BFD0138
:10198000E21BF30B77FD0AC0DC0116964D915C91CA
:10199000641775071CF4AB01BF0176DF1F910F912F
:1019A000089514964D915C91DA01A61BB70BBD0109
:1019B00061507109DC0116964D915C91DA01AE1B04
:1019C000BF0BFD01E21BF30B77FDE8CFAF01ADDEEE
:1019D000E5CF16964D915C91DA01A61BB70BBD01C0
:1019E00061507109CFCF0F931F93FA01DC01569616
:1019F0004C9156974230A1F0433081F1413011F5BE
:101A000014964D915C91DA01AE1BBF0BFD0131972D
:101A1000F7FD03C0AB01BF0188DE1F910F91089550
:101A200014964D915C91DA01A61BB70BBD01DC0148
:101A300016964D915C91DA01AE1BBF0BFD013197FB
:101A4000621B730BF7FDE9CFDC0116964D915C919B
:101A5000E417F50714F7AF0117DFDFCF16964D91A6
:101A60005C91DA01A61BB70BBD01621B730BD0CFD3
:101A7000FC0177FD64C080859185681779070CF0BB
:101A80005EC057FD5CC082859385481759070CF0EE
:101A900056C086898230B1F0833029F1813041F41B
:101AA00084819581841B950BAB01BC016150710948
:101AB0002130310509F108F443C02230310509F421
:101AC00063C0089584819581DC01A61BB70BBD011D
:101AD0006150710986819781DC01A41BB50BAD01B2
:101AE00041505109E5CF86819781861B970BBA013A
:101AF000AC0141505109DCCFCA0157FD0796A3E064
:101B000095958795AA95E1F7A481B5818A9F900163
:101B10008B9F300D9A9F300D1124620F731F078C1D
:101B2000F0A1E02DE60FF71F4770552721E030E0C8
:101B300001C0220F4A95EAF78081822B80830895A5
:101B4000CA0157FD079633E0959587953A95E1F7D9
:101B5000A481B5818A9F90018B9F300D9A9F300D93
:101B60001124620F731F078CF0A1E02DE60FF71F01
:101B70004770552781E090E001C0880F4A95EAF749
:101B8000809590818923DACFCA0157FD079623E01B
:101B9000959587952A95E1F7A481B5818A9F900153
:101BA0008B9F300D9A9F300D1124620F731F078C8D
:101BB000F0A1E02DE60FF71F4770552721E030E038
:101BC00001C0220F4A95EAF780818227B7CF089596
:101BD0008EBD00000DB407FEFDCF8EB508958CBDFF
:101BE0009DBD08950895FC016370668B8481958185
:101BF00026813781613039F0633029F09187808701
:101C000033872287089531872087938782870895B5
:101C10002F923F924F925F926F927F928F929F92FC
:101C2000AF92BF92CF92DF92EF92FF920F931F93EA
:101C3000CF93DF93CDB7DEB76A970FB6F894DEBFC8
:101C40000FBECDBF9A8F898F7A8369834A01D22EC6
:101C500018870F833701BC2CDC0159962D913C91DC
:101C60005A972115310509F015C118968D919C914F
:101C70001997681779070CF0D7C11A968D919C9126
:101C8000481759070CF0D0C14C2C512CB6E0CB9E14
:101C9000600D711D11247C876B87161617060CF0DA
:101CA000C3C1EA2DF0E0FA87E98793E0EE0FFF1F4A
:101CB0009A95E1F7F88BEF87CF01840F951F1816DF
:101CC00019060CF0B1C1A98DBA8D58968C9181116D
:101CD00004C0BFEABD1508F4D394A98DBA8DED9167
:101CE000FC9111970284F385E02DCD011995B5E0A3
:101CF000DB9EC0011124E981FA81FC83EB83312C46
:101D0000212C9C012B51394F388F2F8B4A2D50E0BD
:101D10005E8B4D8BEF89F88DE20DF31D44919E8211
:101D20008D82D12CC12C69817A81620D731D7A8BD1
:101D3000698B842F90E09C8B8B8BE98DFA8DA08131
:101D4000B18140FF82C0F1E0BF126FC0AF126DC021
:101D50001C96ED91FC912F813885A4014C0D5D1DE1
:101D600069897A89898D9A8D1995EB89FC89F59510
:101D7000E7954E2F5FEFC51AD50A6D817E818D895B
:101D80009E89680F791F7E836D8398E0C916D10400
:101D900081F6AFEF2A1A3A0AEB81FC81E40DF51DBA
:101DA000FC83EB83F5E02F16310409F0B3CF2F81CC
:101DB000388526153705B9F0A98DBA8DED91FC91BE
:101DC000B1E0BB1257C0AB1255C069817A816B5F1D
:101DD0007F4F0088F189E02D830128E030E0A401E5
:101DE000898D9A8D1995A98DBA8DED91FC911197D8
:101DF0000688F789E02DCD016A960FB6F894DEBF0C
:101E00000FBECDBFDF91CF911F910F91FF90EF904B
:101E1000DF90CF90BF90AF909F908F907F906F900A
:101E20005F904F903F902F9019941E96ED91FC91EA
:101E3000EF80F88409851A8592014D815E816B815E
:101E40007C81898D9A8D199590CF2F8138852615A3
:101E5000370509F48ACF31E0B31207C0A31205C0D9
:101E60001C96ED91FC91930178CF1E96ED91FC911B
:101E70007301E0CF6B857C85641975090684F7854D
:101E8000E02D73010F8518899201A401898D9A8D27
:101E90001995A9CFF90134969491329745915491AF
:101EA000D91AB7E0DB9E400D511D1124F90125918F
:101EB00034913C8B2B8BFA0125903490FA013296A9
:101EC000749031963491398B329664903196449067
:101ED00041E04C1518F04A1508F07FC0662D062C1D
:101EE000000C770B7C836B83842D042C000C990BE6
:101EF0009E838D83A98DBA8DED91FC9111970284FB
:101F0000F385E02DCD011995512CD12CC12CEA2D52
:101F1000F0E0FA87E9872B2D30E03C872B87A4017E
:101F2000440D511D47FC5A95588F4F8B69817A811A
:101F3000660D711D67FC7A957E876D877989C71656
:101F400008F051CF2C2D30E04D815E81420F531FA0
:101F5000A985BA854A9FC0014B9F900D5A9F900D4D
:101F60001124FC01E80DF91DF88BEF87852D612CFC
:101F70004F89588D420F531F5E8B4D8B671408F0AD
:101F800050C044244394480E877041F4C101019627
:101F9000EB89FC89E20DF31DD4901C01D7FE19C01A
:101FA000A98DBA8DED91FC91662D70E0B1E0BB1268
:101FB00019C0AB1217C02D853E85620F731F0484B4
:101FC000F585E02D2F8138854D895E89898D9A8D23
:101FD0001995DD0C6394842DD1CF1E821D821C8245
:101FE0001B8288CF4B815C81640F751FAB85BC85DC
:101FF0006A9FC0016B9F900D7A9F900D112469819B
:102000007A81680F791F0684F785E02DEF80F884C8
:1020100009851A859D014F855889898D9A8D199555
:10202000D8CF570CC3948ACF6A960FB6F894DEBF08
:102030000FBECDBFDF91CF911F910F91FF90EF9019
:10204000DF90CF90BF90AF909F908F907F906F90D8
:102050005F904F903F902F9008958F929F92AF92F4
:10206000CF92EF92FF920F931F93CF93DF93EC01E8
:10207000262F898D9A8D009709F050C06A30D1F4CF
:102080001D861C868D8948E0849F900111248E85D1
:102090009F85820F931F9F878E8781E090E0DF915D
:1020A000CF911F910F91FF90EF90CF90AF909F90A5
:1020B0008F9008956D3089F3CC88AD888F898823FF
:1020C000C1F08C859D8536E0C39E800D911D112445
:1020D000488559854817590764F44E855F851D86E4
:1020E0001C8638E0A39EC0011124840F951F9F8792
:1020F0008E87EA88FB88088919894E855F856C85FB
:102100007D85CE0185DD2C898C859D8546E0249FCB
:10211000800D911D11249D878C87BFCF6A3069F493
:102120001D861C86FC013696E4912D898E859F853F
:10213000E29F800D911D1124AECF6D3009F4ADCF1B
:10214000FC0134963491631708F4A7CF3196E491DB
:10215000E61708F4A2CFFC01329685909490462FA2
:10216000431B342F47E0349F800C911C1124F40151
:10217000329634913196E4913323A1F1EE2391F11B
:10218000CC88F4013596E491AD884F89442301F160
:102190000E2E000CFF0BE30FF11DCE9EA001CF9E73
:1021A000500D11246C857D85460F571F68857985F4
:1021B000641775076CF44E855F851D861C86FC01CF
:1021C0003696E491AE9E400D511D11245F874E87D7
:1021D000EA88FB88088919894E855F856C857D852D
:1021E000CE0116DDF4013496E4912C898C859D8511
:1021F000E29F800D911D11248ECF6F927F928F925E
:102200009F92AF92BF92CF92DF92EF92FF920F9385
:102210001F93CF93DF93EC016B015A013901480101
:10222000E881F9810284F385E02D1995E881F9812F
:102230000288F389E02D87019301A501B601CE0143
:102240001995A501480D591D41505109E881F981A1
:102250000288F389E02D9301B601CE011995E8813A
:10226000F9810088F189E02D9401A501B601CE0124
:102270001995C60CD71CB60161507109E881F98126
:102280000088F189E02D9401A501CE011995E8811E
:10229000F9810688F789E02DCE01DF91CF911F915A
:1022A0000F91FF90EF90DF90CF90BF90AF909F90F5
:1022B0008F907F906F9019946F927F928F929F92E0
:1022C000AF92BF92CF92DF92EF92FF920F931F9344
:1022D000CF93DF935C01EB016A014901380187016B
:1022E000DC01ED91FC916217730719F56416750610
:1022F0002CF0962D872D3A01C92ED82E960126193D
:1023000037092F5F3F4F048CF58DE02DA301BE01EF
:10231000C5011995DF91CF911F910F91FF90EF901B
:10232000DF90CF90BF90AF909F908F907F906F90F5
:1023300008954615570591F42617370724F0892D7F
:102340004B01C22FD82F9E01281939092F5F3F4F0B
:10235000068CF78DE02DA601B401DACF0284F38557
:10236000E02D1995D501ED91FC910488F589E02DBA
:1023700083019401A601BE01C5011995D501ED9116
:10238000FC910688F789E02DC501DF91CF911F915F
:102390000F91FF90EF90DF90CF90BF90AF909F9004
:1023A0008F907F906F901994EF92FF920F931F93ED
:1023B000DC011A960D911C911B9718962D913C915A
:1023C0001997ED91FC9100A0F1A1E02D7B0150E067
:1023D00040E070E060E019951F910F91FF90EF9041
:1023E00008954F925F926F927F928F929F92AF92D9
:1023F000BF92CF92DF92EF92FF920F931F93CF93F2
:10240000DF936C012B015A0139014801DC01ED9188
:10241000FC910284F385E02D1995E201640C751C92
:10242000D601ED91FC91C615D7055CF40088F189C1
:10243000E02D87019401A501BE01C60119952196E1
:10244000EFCF0688F789E02DC601DF91CF911F916C
:102450000F91FF90EF90DF90CF90BF90AF909F9043
:102460008F907F906F905F904F9019948F929F9272
:10247000AF92BF92CF92DF92EF92FF920F931F9392
:10248000CF93DF93EC015B014A016901E881F98197
:102490000284F385E02D199595012C0D3D1D2150E9
:1024A0003109E881F9810488F589E02D78018401FA
:1024B000A401B501CE011995E881F9810688F78953
:1024C000E02DCE01DF91CF911F910F91FF90EF9002
:1024D000DF90CF90BF90AF909F908F9019948F9284
:1024E0009F92AF92BF92CF92DF92EF92FF920F93A3
:1024F0001F93CF93DF93EC015B014A0169017801DF
:10250000E881F9810284F385E02D1995C80CD91C66
:10251000860101501109E881F9810488F589E02DCF
:102520009501A401B501CE011995E881F9810688CC
:10253000F789E02DCE01DF91CF911F910F91FF9090
:10254000EF90DF90CF90BF90AF909F908F901994B5
:10255000EF92FF920F931F93DC01ED91FC9100A08D
:10256000F1A1E02D19951F910F91FF90EF90089523
:102570000F931F93DC01ED91FC91068CF78DE02DFC
:1025800019951F910F9108950F931F93DC01ED9101
:10259000FC91048CF58DE02D19951F910F910895F4
:1025A000DC01ED91FC910084F185E02D19943F92BE
:1025B0004F925F926F927F928F929F92AF92BF9253
:1025C000CF92DF92EF92FF920F931F93CF93DF93FF
:1025D0005C017B014A016901390187E0680E711CC9
:1025E00093E0759467949A95E1F72B01400E511E84
:1025F00010E000E0312CD0E0C0E0CE0187709927D8
:10260000330C892B59F4FE0183E0F595E7958A9503
:10261000E1F7E00FF11FE80DF91D349037FE09C016
:1026200021E030E0A701B5016C0F7D1F85E294E049
:10263000B7DF2196CC16DD0601F78FEFE81AF80A0E
:10264000060D171DE414F504B1F6DF91CF911F912B
:102650000F91FF90EF90DF90CF90BF90AF909F9041
:102660008F907F906F905F904F903F9008952F9242
:102670003F924F925F926F927F928F929F92AF9212
:10268000BF92CF92DF92EF92FF920F931F93CF935F
:10269000DF9300D000D0CDB7DEB73C016A013E83A6
:1026A0002D83FC82EB825801A41AB50AB7FE03C041
:1026B000B194A194B1088D809E80861A970A97FEE6
:1026C00003C09194819491088A149B045CF0902F2C
:1026D000812F0D811E819D838E839C2D8D2D6B01FD
:1026E000692F782F0C151D055CF09D818E817E83EE
:1026F0006D83692F782F902F812F8601C92ED82EB8
:102700001601201A310A2B012D813E81421A530AEB
:1027100057FE03C0519441945108710137FE03C024
:102720003FEFE31AF30AF594E7948D819E818617B3
:1027300097075CF5A1E0B0E0BA83A983C016D10683
:102740004CF1D301ED91FC910484F585E02D2B81B2
:102750003C81A8016D817E818A149B041CF04D810F
:102760005E81B801C3011995E418F508F7FE0AC0A7
:102770002D813E8189819A81280F391F3E832D83C7
:10278000E20CF31C0F5F1F4FD9CF2FEF3FEF3A83BF
:102790002983D4CF26960FB6F894DEBF0FBECDBFE7
:1027A000DF91CF911F910F91FF90EF90DF90CF902D
:1027B000BF90AF909F908F907F906F905F904F9061
:1027C0003F902F900895089585ED8093BC008091EF
:1027D000BC0084FDFCCF1092490308952091F202C1
:1027E000260F3327331F21323105ECF420914903A2
:1027F000FC0190E080E0243069F082E00895A0912F
:10280000F2022191AC014E525D4FA40FB52FB11DC4
:102810002C930196861798F38091F202680F6093CB
:10282000F20280E0089581E00895E0914B038091E9
:102830004A03E81730F4F0E0EE54FD4F808190E059
:1028400008958FEF9FEF089590914B0380914A0375
:102850002FEF3FEF981748F4E92FF0E0EE54FD4FCB
:10286000208130E09F5F90934B03C90108958091D0
:102870004A0390914B03891B990B0895CF92DF92E5
:10288000EF92FF920F931F93CF93DF937C01CB01C5
:102890008A0120915D03222389F0EB016B01C40EB4
:1028A000D51ECC15DD0561F06991D701ED91FC9144
:1028B0000190F081E02DC7011995F3CF642F8EDFD1
:1028C000C801DF91CF911F910F91FF90EF90DF90A2
:1028D000CF900895CF93DF931F92CDB7DEB7698372
:1028E00020915D032223F9F020915A03203258F001
:1028F00021E030E0FC013383228390E080E00F9000
:10290000DF91CF91089580915B03E82FF0E0EE56C0
:10291000FD4F998190838F5F80935B0380935A036F
:1029200081E090E0ECCF61E0CE01019657DFF8CF77
:1029300020915A0381E0213208F044C0809149037C
:102940008111FCCF80915C0392E09093490391E068
:10295000909348039FEF90931503109237032093B1
:102960003603A2E9B2E0E6E1F3E090E0291331C0DA
:102970001092380390913803880F892B8093380385
:1029800080914703813049F51092470380913803C5
:102990008093BB008091BC0083FDF8CF85EC8093D1
:1029A000BC00809149038230E1F3809115038F3F91
:1029B000B1F0809115038032A1F08091150380332E
:1029C00091F084E010925B0310925A0310925D0321
:1029D00008953D9131939F5FC9CF85EEE0CF80E0B0
:1029E000F1CF82E0EFCF83E0EDCFFF920F931F9303
:1029F000CF93DF93F82ED92FC62F80914204909168
:102A00004304009709F450C02091460431E030930C
:102A10005D0320935C0310925B0310925A03DC0168
:102A2000ED91FC910190F081E02D60E019950F2D62
:102A30001D2FD1E0FF24F394C15080914204909166
:102A40004304CF3F59F1D032C0F072DF809142048D
:102A50009091430420914604F0925D0320935C031F
:102A600010925B0310925A03DC01ED91FC910190EE
:102A7000F081E02D60E01995D1E0809142049091C1
:102A80004304F8016491DC01ED91FC910190F08127
:102A9000E02D1995DF5F0F5F1F4FCECFDF91CF91F4
:102AA0001F910F91FF9044CFE0915204F091530495
:102AB0009081809158048095892380830F2D1D2F4C
:102AC000C15008F437C0F80184912091400430913E
:102AD0004104232B21F07CD80F5F1F4FF1CF28E05A
:102AE00030E040E8E0914E04F0914F04909156049C
:102AF000582F5423D9F05081952B9083E0915004A6
:102B0000F0915104908150915704952B9083E0915E
:102B10005004F09151045081909157049095952361
:102B20009083469521503109E9F6D6CF5081909592
:102B30009523E3CFDF91CF911F910F91FF900895DF
:102B40001F93CF93DF93EC018D8D9E8D009719F12C
:102B5000162F29A131E030935D0320935C0310927E
:102B60005B0310925A03DC01ED91FC910190F0811E
:102B7000E02D60E019958D8D9E8DDC01ED91FC912D
:102B80000190F081E02D612F19958D8D9E8DDF9143
:102B9000CF911F91CDCEADA5BEA59C918BA980955F
:102BA00089238C938B8D9C8D892B29F0862FDF9127
:102BB000CF911F910DC828E030E080E8A9A5BAA503
:102BC00099A9462F4823C1F04C91942B9C93ABA517
:102BD000BCA59C914AA9942B9C93ABA5BCA54C91F8
:102BE0009AA9909594239C9386952150310931F7A9
:102BF000DF91CF911F9108954C9190959423E6CF4A
:102C0000EF92FF920F931F93CF93DF938091420433
:102C100090914304892B09F490C020915C04309179
:102C20005D0440915E0450915F0460E074E284EFC3
:102C300090E00E94522420513109410951095695D2
:102C40004795379527952093B80065E085E492E194
:102C5000CCDE60912904615085E294E071DF20911F
:102C60002B0430912C04C901079697FD079623E0A9
:102C7000959587952A95E1F72091290430912A04AA
:102C8000829F8001839F100D929F100D1124C0918F
:102C90004404D091450480914204909143040C0F68
:102CA0001D1F009709F487C02091460431E030933E
:102CB0005D0320935C0310925B0310925A03DC01C6
:102CC000ED91FC910190F081E02D60E41995FF24D5
:102CD000F394EE24E39480914204909143040C1702
:102CE0001D0709F441C0BFE1BF15C8F421DE809182
:102CF00042049091430420914604E0925D032093A6
:102D00005C0310925B0310925A03DC01ED91FC917D
:102D10000190F081E02D60E41995FF24F3948091F7
:102D20004204909143046991DC01ED91FC91019082
:102D3000F081E02D1995F394CECF809140049091CD
:102D40004104892B31F080915A0490915B040E94D8
:102D5000EF0DE0915404F091550490818091590455
:102D600080958923808371CFE3DD80914204909127
:102D70004304892B09F460C0209160043091610400
:102D8000409162045091630460E074E284EF90E04B
:102D90000E94522420513109410951095695479505
:102DA000379527952093B800DF91CF911F910F9110
:102DB000FF90EF900895E0915204F09153048081C8
:102DC00090915804892B80830C171D0771F289910B
:102DD0002091400430914104232B19F00E94E80D0A
:102DE000F3CF28E030E040E8E0914E04F0914F044A
:102DF00090915604582F5423D9F05081952B9083ED
:102E0000E0915004F0915104908150915704952B1A
:102E10009083E0915004F0915104508190915704B7
:102E2000909595239083469521503109E9F6CCCFB2
:102E3000508190959523E3CFE0915404F09155048F
:102E4000808190915904892B8083AECF1F93CF93BB
:102E5000DF93EC01162F8D8D9E8D892BA9F12FA963
:102E600038AD49AD5AAD60E074E284EF90E00E9465
:102E700052242051310941095109569547953795FA
:102E800027952093B80066EA111167EACE0158DE53
:102E90008D8D9E8D892B41F12BAD3CAD4DAD5EAD41
:102EA00060E074E284EF90E00E94522420513109E6
:102EB0004109510956954795379527952093B800B4
:102EC000DF91CF911F9108958B8D9C8D892B21F0DF
:102ED0008DA99EA90E94EF0DEFA5F8A990818CA95C
:102EE000809589238083CFCFEFA5F8A980819CA905
:102EF000892B8083E5CF90E080E008958FB18095A5
:102F0000877090E09C012150310928233923232B1D
:102F100011F090E080E00895E2E0F1E080818160CE
:102F2000808310920A01089596B19F7798B90000A6
:102F300080930B0186B1806888B9089586B18F7738
:102F400088B900008091090196B1906898B90895F8
:102F5000492F82B9592F550F550B292F25952595A6
:102F60002595352F2370332788E090E002C0880F25
:102F7000991F2A95E2F79A012770332748E784279B
:102F8000822B88B90895DF92EF92FF920F931F93DF
:102F9000CF93DF93D82EE92E8B01F42EBDDFCD2DFC
:102FA000DE2D0C0F1D1FEE24EA94C017D10774F418
:102FB000CE01CEDFE0920A01809102018E7F8093E4
:102FC00002018F2DB1DFA8DF2196EFCFDF91CF91E6
:102FD0001F910F91FF90EF90DF90089511B812B8F4
:102FE00017B818B880E6809302018093010110920F
:102FF0000A0110920B01089520912B0430912C04AA
:10300000C901079697FD079623E0959587952A9520
:10301000E1F72091290430912A04829FA001839F27
:10302000500D929F500D112470E060E08091440497
:10303000909145040C948A26DFDFE5E2F4E01586E2
:1030400014868CE090E0978786870895FB010190B5
:103050000020E9F73197AF01461B570BDC01ED91DA
:10306000FC910280F381E02D1994CF93DF930E94AD
:10307000A709EC016CE572E085E294E0E7DF8C0FD4
:103080009D1FDF91CF9108958F929F92AF92BF9233
:10309000EF92FF920F931F93CF93DF93CDB7DEB7DD
:1030A000A1970FB6F894DEBF0FBECDBF7C01FA0129
:1030B000CB0119A2223008F42AE08E010F5D1F4FC8
:1030C000822E912CB12CA12CBF01A50194010E944C
:1030D0005224F901CA016A3004F5605DD8016E938B
:1030E0008D01232B242B252B79F790E080E010977E
:1030F00019F0BD01C701AADFA1960FB6F894DEBF93
:103100000FBECDBFDF91CF911F910F91FF90EF9038
:10311000BF90AF909F908F900895695CDFCFCF9361
:10312000DF93482F50E070E060E020E18EE593E00F
:10313000ABDFEC016CE572E08EE593E087DF8C0F8E
:103140009D1FDF91CF910895EF92FF920F931F93F0
:10315000CF93DF938C017B01D0E0C0E0F701EC0F4F
:10316000FD1F6491662361F0D801ED91FC910190FF
:10317000F081E02DC8011995892B11F02196EECF31
:103180006CE572E0C80162DF8C0F9D1FDF91CF916B
:103190001F910F91FF90EF90089558CF5F926F921B
:1031A0007F928F929F92AF92BF92CF92DF92EF92D7
:1031B000FF920F931F93CF93DF936C01762E672EB0
:1031C0005A01922E822E809437DFC8014EDF18DD1F
:1031D000F12CE12C10E000E055245A94EC14FD048D
:1031E0000CF05CC0492DB501872D962DCCDEC72D86
:1031F000D62DCA15DB050CF04DC0CE01A9DE9EDE32
:10320000981211C0CE01A4DE50920A0180910201F1
:103210008E7F80930201882D87DE7EDECE0198DED0
:103220008DDE881679F00F5F1F4FC11588E0D80733
:103230005CF480914C0390914D03019690934D0363
:1032400080934C032196D5CFC11580E1D80754F463
:1032500080914E0390914F03019690934F0380937A
:103260004E03F0CFC11588E1D80754F48091500384
:103270009091510301969093510380935003E2CFB4
:10328000809152039091530301969093530380933E
:103290005203D8CF8FEFE81AF80AA0CFC1E001158A
:1032A000110509F4C0E00115110549F16FED76E053
:1032B00085E294E049DFC801B6010E943F248B01FA
:1032C000A801110F660B770B20E185E294E0DCDEAC
:1032D0006CE572E085E294E0B9DE92DC8C2FDF9140
:1032E000CF911F910F91FF90EF90DF90CF90BF9003
:1032F000AF909F908F907F906F905F90089567ED53
:1033000076E085E294E020DFDBCF2F923F925F9260
:103310006F927F928F929F92AF92BF92CF92DF92E5
:10332000EF92FF920F931F93CF93DF935C01562E82
:103330006A01390181DEC80198DE62DCF12CE12CE2
:10334000D0E0C0E01601260C371CEA14FB040CF098
:1033500056C0452DB301C60116DE68EE73E080E06D
:1033600090E00E94650BD8DD8601912C812C02151E
:1033700013050CF03EC0C801EBDDE0DD581681F00E
:103380008FEF881A980A011588E0180764F4809175
:103390004C0390914D03019690934D0380934C0301
:1033A0000F5F1F4FE4CF011580E1180754F480919F
:1033B0004E0390914F03019690934F0380934E03D9
:1033C000EFCF011588E1180754F4809150039091D4
:1033D000510301969093510380935003E1CF809164
:1033E0005203909153030196909353038093520399
:1033F000D7CFC80DD91D8FEFE81AF80AA6CF11E074
:10340000209709F410E0209751F161ED76E085E214
:1034100094E09ADECE01B5010E942B24EB01AE01AF
:1034200070E060E020E185E294E02EDE6CE572E081
:1034300085E294E00BDEE4DB812FDF91CF911F91D9
:103440000F91FF90EF90DF90CF90BF90AF909F9043
:103450008F907F906F905F903F902F90089569ECD0
:1034600076E085E294E070DEDACF0F931F93CF937E
:10347000DF93EC0188819981009759F02A813B8183
:103480002617370730F081E0DF91CF911F910F9120
:1034900008958B016F5F7F4F0E94A125009759F01F
:1034A000998388831B830A832C813D81232B59F7C1
:1034B000FC011082E8CF80E0E7CFCF93DF93EC01EF
:1034C00088819981009711F00E941825198218822D
:1034D0001D821C821B821A82DF91CF910895CF92A8
:1034E000DF92EF92FF920F931F93CF93DF93CDB7AD
:1034F000DEB762970FB6F894DEBF0FBECDBF8C016A
:10350000CB01F8011182108213821282158214827B
:1035100040E19E012F5F3F4F6901B9010E94F823EE
:10352000F60101900020E9F731977F01EC18FD08C2
:10353000B701C8019ADF811111C0C801BEDF6296D0
:103540000FB6F894DEBF0FBECDBFDF91CF911F91B4
:103550000F91FF90EF90DF90CF900895F801F582E2
:10356000E482B601808191810E949126E8CFEF929A
:10357000FF920F931F93CF93DF93EC01FB01E08049
:10358000F180E114F10409F104811581011511059F
:10359000A1F08C819D81080F191FB801CE0165DF54
:1035A000882399F0288139818C819D81B701820F10
:1035B000931F0E9491261D830C83CE01DF91CF9132
:1035C0001F910F91FF90EF900895CE0176DFF5CF18
:1035D000EF92FF920F931F93CF93DF93EC017B0148
:1035E000198218821B821A821D821C82FB010190A3
:1035F0000020E9F731978F01061B170BB80135DF63
:10360000811108C0CE01DF91CF911F910F91FF90E2
:10361000EF9053CF1D830C83B70188819981DF918F
:10362000CF911F910F91FF90EF900C949126FC0188
:10363000808191810C941825EF92FF920F931F9334
:10364000CF93DF93EC018B01198218821B821A82BF
:103650001D821C82CB010E94EF237C01BC01CE01A4
:1036600004DF811108C0CE01DF91CF911F910F912E
:10367000FF90EF9022CFFD82EC82B8018881998182
:10368000DF91CF911F910F91FF90EF900C94E82361
:103690000E947D261F920F920FB60F9211240BB637
:1036A0000F922F933F934F935F936F937F938F93DB
:1036B0009F93AF93BF93EF93FF938EE593E00E94A8
:1036C000F709FF91EF91BF91AF919F918F917F91FA
:1036D0006F915F914F913F912F910F900BBE0F9083
:1036E0000FBE0F901F9018951F920F920FB60F925A
:1036F00011240BB60F922F938F939F93EF93FF9309
:10370000E0916E03F0916F038081E0917403F0917A
:10371000750382FD1DC09081809177038F5F8F7349
:1037200020917803821741F0E0917703F0E0E25AAC
:10373000FC4F958F80937703FF91EF919F918F912D
:103740002F910F900BBE0F900FBE0F901F901895EA
:103750008081F2CF1F920F920FB60F9211242F93F8
:103760003F938F939F93AF93BF9380913A03909130
:103770003B03A0913C03B0913D033091390323E01A
:10378000230F2D3758F50196A11DB11D2093390344
:1037900080933A0390933B03A0933C03B0933D0383
:1037A00080913E0390913F03A0914003B09141036B
:1037B0000196A11DB11D80933E0390933F03A093FA
:1037C0004003B0934103BF91AF919F918F913F917F
:1037D0002F910F900FBE0F901F90189526E8230F82
:1037E0000296A11DB11DD2CF1F920F920FB60F925C
:1037F00011240BB60F922F933F934F935F936F93C8
:103800007F938F939F93AF93BF93EF93FF93809199
:10381000B900887F803609F44DC008F040C0883276
:1038200009F4A9C028F5803109F49DC0C8F48823A3
:1038300009F4FBC0883009F496C0FF91EF91BF9165
:10384000AF919F918F917F916F915F914F913F9138
:103850002F910F900BBE0F900FBE0F901F901895D9
:10386000883109F488C0803241F78093150314C071
:10387000803409F49DC040F48033B9F38833E9F60D
:103880008093150385ECB0C0803509F485C0883578
:1038900009F496C0883489F60E94E413CECF8839A3
:1038A00009F48CC038F5883729F050F4883611F0C7
:1038B000803719F683E0809349031092140357C0B0
:1038C000883809F47BC0803919F0803809F0B5CF09
:1038D00080911403803208F071C0E091140381E0FC
:1038E0008E0F809314038091BB00F0E0EC50FD4FED
:1038F00080833DC0803B39F0E0F4803A09F479C020
:10390000883A09F09ACF84E0809349031092F30239
:103910001092F202E0914503F091460319958091CF
:10392000F20281110FC081E08093F2021092D20264
:1039300009C0803C09F4A6CF883C09F4A3CF883B9A
:1039400009F07BCFE091F30281E08E0F8093F302C8
:10395000F0E0EE52FD4F80818093BB009091F30226
:103960008091F20229C0809138038093BB0085ECDE
:103970008093BC0062CF90913703809136039817F3
:1039800058F5E091370381E08E0F80933703F0E024
:10399000EA5EFC4F8081E9CFE091370381E08E0F32
:1039A000809337038091BB00F0E0EA5EFC4F808398
:1039B00090913703809136039817C8F285E8D8CFE5
:1039C000E091370381E08E0F809337038091BB0035
:1039D000F0E0EA5EFC4F80838091480381115CCF68
:1039E00081E08093470384EA8093BC0010924903EE
:1039F00024CF85EC8093BC0010924903809114037E
:103A0000803230F4E0911403F0E0EC50FD4F10826E
:103A10006091140370E0E0914303F091440384EF5C
:103A200092E019951092140308CF1092150334CF29
:103A30001F920F920FB60F9211242F938F939F9383
:103A4000809104029091050281309105F9F48091F2
:103A5000900290919102853F91403CF081B3805853
:103A600081BB1092910210929002809190029091ED
:103A70009102019690939102809390029F918F9171
:103A80002F910F900FBE0F901F901895009711F473
:103A90008F9AF4CF029791F78F98F0CFEEE5F3E08D
:103AA0001382128248EE53E060E070E04483558355
:103AB0006683778380E192E09183808385EC90E058
:103AC0009587848784EC90E09787868780EC90E0E8
:103AD000918B808B81EC90E0938B828B82EC90E0D9
:103AE000958B848B86EC90E0978B868B118E128E53
:103AF000138E148EA9E1B4E013961C921E921297B5
:103B000014964D935D936D937C93179782E292E0A8
:103B100011969C938E93E5E2F4E01382128220E8E2
:103B200030E03583248380E490E097838683318777
:103B3000208793878287168A1586148617861686AD
:103B400081E0858B848B2FEF3FEF338B228B318B82
:103B5000208B878B108E128E118E84E392E09183DE
:103B60008083148E138EB68FA58F10A2178E8FEFC1
:103B700084A385A386A387A380A780E585AB16AA27
:103B800080E89AE1A6E0B0E087AB90AFA1AFB2AF1A
:103B900080EA96E8A1E0B0E083AF94AFA5AFB6AFFE
:103BA0006FE572E08BEF93E013DD63E672E081E096
:103BB00094E00EDD66E672E087E094E009DD69E6F8
:103BC00072E08DE094E004DD6CE672E083E194E065
:103BD000FFCCCF93DF93CDB7DEB72C970FB6F89419
:103BE000DEBF0FBECDBF789484B5826084BD84B53E
:103BF000816084BD85B5826085BD85B5816085BDE8
:103C000080916E00816080936E001092810080919F
:103C10008100826080938100809181008160809327
:103C20008100809180008160809380008091B1004C
:103C300084608093B1008091B00081608093B00077
:103C400080919100826080939100809191008160C9
:103C5000809391008091900081608093900080918A
:103C6000A10082608093A1008091A1008160809377
:103C7000A1008091A00081608093A000809121012B
:103C800082608093210180912101816080932101D4
:103C90008091200181608093200180917A0084606E
:103CA00080937A0080917A00826080937A0080917C
:103CB0007A00816080937A0080917A008068809396
:103CC0007A001092C1008AD980E880BB87E081BB6E
:103CD00080919100887F8360809391008091710032
:103CE000816080937100E0916E03F0916F0382E038
:103CF0008083E0916A03F0916B031082E0916C0382
:103D0000F0916D038FEC808310927603E091720343
:103D1000F091730386E08083E0917003F09171036A
:103D2000808180618083E0917003F09171038081D4
:103D300088608083E0917003F091710380818068D6
:103D40008083E0917003F091710380818F7D808387
:103D50006FE672E08EE593E079D96CE572E08EE56E
:103D600093E074D98091440490914504892B31F5F6
:103D700020912B0430912C04C901079697FD0796DA
:103D8000B3E095958795BA95E1F720912904309194
:103D90002A04AC01429FC001439F900D529F900D99
:103DA0001124AAD59093450480934404892B31F4BF
:103DB0006EEF70E18EE593E0C7D9FFCF1DD920915A
:103DC0002B0430912C048091290490912A04B9018C
:103DD000213231050CF450C16054710977FF02C0E3
:103DE0006F5F7F4F759567958255910997FD019695
:103DF00000E410E022E530E047E35EE0959587952A
:103E00000E94D71282E080934704809142049091EF
:103E10004304892B09F443C18CE380934604109238
:103E20004B0310924A0310925B0310925A031092B4
:103E3000490381E0809348031092470361E084E1E5
:103E40000E94B40A61E085E10E94B40A8091B90041
:103E50008E7F8093B9008091B9008D7F8093B900E7
:103E600088E48093B80085E48093BC008FEA99E0F1
:103E7000909346038093450380EB99E0909344032D
:103E80008093430380914D0487FD1DC00E945A0911
:103E900061E080914D040E94B40A61E070E080E02E
:103EA00090E00E94650B60E080914D040E94B40A8E
:103EB0006AE070E080E090E00E94650B61E0809134
:103EC0004D040E94B40A8091420490914304892BCE
:103ED00009F49CC120915C0430915D0440915E0422
:103EE00050915F0460E074E284EF90E0DBD42051F5
:103EF00031094109510956954795379527952093E2
:103F0000B80064E083E59CE00E94F51460912B0406
:103F1000615085E294E00E94A01564E08FE49CE08B
:103F20000E94F5148091470464E1813009F460E156
:103F300085E294E00E94A01564E08BE49CE00E947E
:103F4000F5148091290490912A048038910509F094
:103F500088C180912B0490912C048032910509F046
:103F60006CC164E087E49CE00E94F51469ED85E291
:103F700094E00E94A0158091470461EF813009F41C
:103F800062E285E294E00E94A01566E08BE39CE08B
:103F90000E94F5148091420490914304892B09F406
:103FA00077C1209160043091610440916204509186
:103FB000630460E074E284EF90E074D4205131092E
:103FC0004109510956954795379527952093B80093
:103FD0000E94001660ED77E080E090E00E94650BA3
:103FE00080913E0490913F04892B49F480913304E1
:103FF000909134040696909334048093330487EFB1
:1040000090E190933F0480933E0481E080933904D3
:1040100080933A0421E030E0309338042093370451
:10402000309336042093350480933D0496E0392E76
:10403000AA24A394B12C55245A9438EF432E42E07D
:10404000842E912C68EC70E080E090E00E94650B7B
:10405000E0915803F0915903E730F10508F078C179
:104060008827EB5CFF4D8F4F3FC452216D21AB2160
:10407000E22139229723B8236052710977FF02C0E9
:104080006F5F7F4F759567958357910997FD0196EF
:1040900000E210E023E730E047E55CE0AFCE80913E
:1040A0004B040E945A0980914C040E945A09809145
:1040B0004B04082E000C990BFC01E754FE4EE491D2
:1040C000F0E0EE0FFF1FEB57FE4E25913491309339
:1040D000530420935204FC01E150FE4EE491E0931E
:1040E000580480914C04082E000C990BFC01E754F5
:1040F000FE4EE491F0E0EE0FFF1FEB57FE4EA59150
:10410000B491B0935504A0935404FC01E150FE4EC9
:10411000E491E09359048C91E82BEC938091400456
:1041200090914104892B89F11FB7F8948091420343
:10413000811124C0EEEEF1E18491E4E3F2E1949187
:10414000E82FF0E0EE0FFF1FE156FE4EA591B4916F
:10415000EC91E92321F461E085E30E94B40A85E350
:104160000E945A098CB580618CBD8CB580648CBD71
:1041700084E30E945A0983E30E945A098091420312
:104180008F5F809342031FBF7DCE809149040E94C0
:104190005A0980914A040E945A0980914904082EC4
:1041A000000C990BFC01E754FE4EE491F0E0EE0F99
:1041B000FF1FEB57FE4E2591349130934F0420930F
:1041C0004E04FC01E150FE4EE491E09356048091D0
:1041D0004A04082E000C990BFC01E754FE4EE491B2
:1041E000F0E0EE0FFF1FEB57FE4EA591B491B09398
:1041F0005104A0935004FC01E150FE4EE491E09381
:1042000057048C91E095E823EC933CCE80914004D8
:1042100090914104892B31F080915A0490915B0474
:104220000E94EF0DE0915404F0915504908180912B
:10423000590480958923808364CE8034910509F0E8
:1042400095CE63E084E49CE00E94F51480914704DD
:104250006FEC813009F46FE985E294E00E94A015CB
:1042600085CE8036910509F081CE80912B04909106
:104270002C04409709F07ACE63E081E49CE00E9430
:10428000F514809147046FEA813031F760E1E4CFA3
:10429000E0915404F0915504808190915904892B48
:1042A000808396CE0E941C186BE771E185E294E052
:1042B0000E94A41864E771E185E294E00E94A418CA
:1042C0000E94001660ED77E080E090E00E94650BB0
:1042D000B0925903A09258033BC09092050280927D
:1042E00004020E941C186EE671E185E294E00E94CF
:1042F000A4188BEFE82E83E0F82E10E000E0809108
:104300005603909157039C012E5F3F4F20173107B2
:104310008CF00817190774F065E772E080179107B1
:1043200011F06BE772E085E294E00E94CD18C701BE
:104330000E9435180F5F1F4F56E0E50EF11C053047
:104340001105E9F60E9400169092590380925803D5
:104350000E94840A77CE0E947E178130910569F40D
:1043600083E090E0909359038093580364EF71E0E9
:1043700080E090E00E94650BEBCF8230910591F4D4
:1043800080915603909157030196853091052CF446
:1043900090935703809356039BCF1092570310922C
:1043A000560396CF8430910599F6209156033091AB
:1043B00057032150310937FDEBCF3093570320933A
:1043C000560386CF0E941C1863E671E185E294E0F3
:1043D0000E94A418C0900202D09003020D2C000C81
:1043E000EE08FF082AE0B701A601F7FE0DC06DE256
:1043F00085E294E00E942D1044275527BA014C19FC
:104400005D096E097F092AE085E294E00E94441864
:104410006CE572E085E294E00E9426180E94001686
:104420000E947E178130910539F444E050E05093AA
:104430005903409358038CCF8230910589F48091C1
:10444000020290910302019797FD05C09093030229
:10445000809302027DCF109203021092020278CF65
:10446000049709F075CF80910202909103020196A2
:10447000EDCF0E941C188091560390915703389EEF
:104480008001399E100D112405501C4F67E772E022
:10449000CE0101969DD8B801CE01019668D80E9440
:1044A0003518CE010196C3D80E940016B0920502BD
:1044B000A0920402109255031092540380E090E2FF
:1044C00090930102809300028091560390915703CC
:1044D0001816190674F40197880F880F880F109228
:1044E00054038093550340E058E0509301024093F9
:1044F0000002E0900202F0900302609000027090CF
:104500000102C0905403D0905503109253031092AF
:104510005203109251031092500310924F031092C5
:104520004E0310924D0310924C0312B851B848B884
:1045300057B881E68093010110920B0110920A0195
:10454000809100018F7D8093020160ED77E080E033
:1045500090E00E94650B66E471E1CE0101966CD893
:104560008E010F5F1F4F9301A60165E5C7010E94F1
:104570008519282EC8015BD860ED77E080E090E0D7
:104580000E94650B6CE371E1C80156D89301A60146
:104590006AEAC7010E948519282AC80148D860ED37
:1045A00077E080E090E00E94650B61E371E1C80173
:1045B00043D82FEFA301B601C7010E94CE18282AC5
:1045C000C80135D860ED77E080E090E00E94650B8F
:1045D00066E271E1C80130D820E0A301B601C7014D
:1045E0000E94CE18282AC80122D860ED77E080E02A
:1045F00090E00E94650B0E941C186FE171E1211090
:1046000002C068E171E185E294E00E94A418609123
:104610004C0370914D03CE0101960E946F1A6DE715
:1046200072E0CE0107960E94E81ABE016F5F7F4FCD
:10463000CE0107960E94B71A0E94A709CE010796DD
:104640000E94171BCE0101960E94171B60914E031A
:1046500070914F03CE0101960E946F1A61E872E0DB
:10466000CE0107960E94E81ABE016F5F7F4FCE0110
:1046700007960E94B71A0E943518CE0107960E942D
:10468000171BCE0101960E94171B60915003709179
:104690005103CE0101960E946F1A66E872E0CE01C6
:1046A00007960E94E81ABE016F5F7F4FCE01079602
:1046B0000E94B71A0E94A709CE0107960E94171BF5
:1046C000CE0101960E94171B609152037091530313
:1046D000CE0101960E946F1A6AE872E0CE01079639
:1046E0000E94E81ABE016F5F7F4FCE0107960E94BD
:1046F000B71A0E943518CE0107960E94171BCE01EB
:1047000001960E94171B0E9400160E94EE178091CE
:10471000000180628093020190920502809204025F
:1047200085E090E0909359038093580311CE0E9446
:104730007E1718161906E4F40E941C186CE571E146
:1047400085E294E00E94A41860E571E185E294E0BE
:104750000E94A4180E94001646E050E050935903AE
:104760004093580364EF71E080E090E00E94650B95
:104770000E947E178130910529F4109259031092FE
:104780005803E6CD049709F0E3CD4FCE83E194E0E2
:104790000E94171B8DE094E00E94171B87E094E0B5
:1047A0000E94171B81E094E00E94171B8BEF93E09F
:1047B0000E94171B84E392E09093260480932504C3
:1047C0008091440490914504009709F031C1089507
:1047D000FB01DC0105900D920020E1F70895FC013A
:1047E00005900020E9F7809590958E0F9F1F089502
:1047F000BB274A3031F4992322F4BDE2909581958C
:104800009F4F01C0BB27FB015527AA27880F991F7F
:10481000AA1FA41710F0A41B83955051B9F7A05DEF
:10482000AA3308F0A95DA193009779F7B111B1936C
:104830001192CB0100C0DC01FC01672F719177233D
:10484000E1F7329704C07C916D9370836291AE174B
:10485000BF07C8F30895AA1BBB1B51E107C0AA1FDD
:10486000BB1FA617B70710F0A61BB70B881F991F11
:104870005A95A9F780959095BC01CD01089597FBB5
:10488000072E16F4009406D077FD08D0E4DF07FC6D
:1048900005D03EF4909581959F4F08957095619550
:1048A0007F4F0895A1E21A2EAA1BBB1BFD010DC06C
:1048B000AA1FBB1FEE1FFF1FA217B307E407F507D0
:1048C00020F0A21BB30BE40BF50B661F771F881FAC
:1048D000991F1A9469F760957095809590959B0142
:1048E000AC01BD01CF010895EE0FFF1F881F8BBFE4
:1048F0000790F691E02D19940F931F93CF93DF93B8
:104900008230910510F482E090E0E0916604F0912D
:10491000670430E020E0B0E0A0E0309799F4211582
:10492000310509F44AC0281B390B24303105D8F56C
:104930008A819B816115710589F1FB0193838283D3
:10494000FE0111C04081518102811381481759072E
:10495000E0F04817590799F4109761F012960C93FC
:10496000129713961C933296CF01DF91CF911F912E
:104970000F9108950093660410936704F4CF2115F6
:10498000310551F04217530738F0A901DB019A01B4
:10499000BD01DF01F801C1CFEF01F9CF90936704AA
:1049A00080936604CDCFFE01E20FF31F81939193B4
:1049B0002250310939832883D7CF20916404309164
:1049C0006504232B41F420910802309109023093B1
:1049D000650420936404209106023091070221159A
:1049E000310541F42DB73EB740910A0250910B02B8
:1049F000241B350BE0916404F0916504E217F30782
:104A0000A0F42E1B3F0B2817390778F0AC014E5F3E
:104A10005F4F2417350748F04E0F5F1F5093650412
:104A200040936404819391939FCFF0E0E0E09CCFAA
:104A3000CF93DF930097E9F0FC0132971382128243
:104A4000A0916604B0916704ED0130E020E010977A
:104A5000A1F420813181820F931F20916404309151
:104A600065042817390709F061C0F0936504E093E5
:104A70006404DF91CF910895EA01CE17DF07E8F5CE
:104A80004A815B819E0141155105B1F7E901FB8324
:104A9000EA8349915991C40FD51FEC17FD0761F4C2
:104AA000808191810296840F951FE9019983888303
:104AB000828193819B838A83F0E0E0E012968D915E
:104AC0009C9113970097B9F52D913C911197CD01C9
:104AD0000296820F931F2091640430916504281779
:104AE000390739F6309751F5109267041092660431
:104AF000B0936504A0936404BCCFD383C283408188
:104B00005181840F951FC817D90761F44E5F5F4F1D
:104B100088819981480F591F518340838A819B81E5
:104B2000938382832115310509F0B0CFF093670498
:104B3000E09366049ECFFD01DC01C0CF1382128298
:104B4000D7CF4F925F926F927F928F929F92AF9248
:104B5000BF92CF92DF92EF92FF920F931F93CF936A
:104B6000DF938C01009791F4CB01DF91CF911F91DE
:104B70000F91FF90EF90DF90CF90BF90AF909F90FC
:104B80008F907F906F905F904F90B6CEFC01E60FB4
:104B9000F71F9C0122503109E217F30708F4AAC05D
:104BA000D901CD91DC911197C617D70718F1C530FF
:104BB000D10570F0CE0104978617970748F0C61B01
:104BC000D70B2297C193D1936D937C93CF0130DFA4
:104BD000C801DF91CF911F910F91FF90EF90DF906F
:104BE000CF90BF90AF909F908F907F906F905F908D
:104BF0004F9008955B01AC1ABD0A4C018C0E9D1EAE
:104C0000A0916604B0916704512C412CF12CE12C49
:104C1000109731F580916404909165048815990589
:104C200009F05CC04616570608F058C0809106028D
:104C300090910702009741F48DB79EB740910A0208
:104C400050910B02841B950BE817F90708F052C02E
:104C5000F0936504E0936404F90171836083B8CF35
:104C60008D919C91119712966C90129713967C904F
:104C70001397A815B90559F56C0142E0C40ED11C73
:104C8000CA14DB0420F1AC014A195B09DA0112965F
:104C9000159780F06282738251834083D9016D93AE
:104CA0007C93E114F10471F0D7011396FC93EE9319
:104CB00012978ECF22968C0F9D1FF90191838083CE
:104CC000F301EFCFF0936704E093660481CF4816B9
:104CD000590608F42C017D01D3019ACFCB010CDEDB
:104CE0007C01009739F0AE01B8010BD0C801A0DEFD
:104CF00087016ECF10E000E06BCF81E090E0F89488
:104D000017C0FB01DC0102C001900D9241505040E0
:104D1000D8F70895DC0101C06D9341505040E0F791
:104D20000895FB01DC0101900D920020E1F7089548
:104D300019E0C6E2D9E000E005C0802FFE01D4DD15
:104D40002196011DC732D10780E00807B1F7F8941A
:024D5000FFCF93
:104D52000020010002000000680480000000000042
:104D6200190A7A09B109650AE209C009D4090000E1
:104D720000006A143E147B177909371424141514A1
:104D8200000000002D107A097B17E313380D790912
:104D9200D012A812C412B81237137909F30D2617CC
:104DA200AC0CF30CF111D4115C11FD100D0A004191
:104DB2006C6C0043310043320043330043340053F0
:104DC20065747570003E0054657374200043313A77
:104DD200002043323A0043333A002043343A000081
:020000023000CC
:10E000000D9489F10D94B2F10D94B2F10D94B2F129
:10E010000D94B2F10D94B2F10D94B2F10D94B2F1F0
:10E020000D94B2F10D94B2F10D94B2F10D94B2F1E0
:10E030000D94B2F10D94B2F10D94B2F10D94B2F1D0
:10E040000D94B2F10D94B2F10D94B2F10D94B2F1C0
:10E050000D94B2F10D94B2F10D94B2F10D94B2F1B0
:10E060000D94B2F10D94B2F10D94B2F10D94B2F1A0
:10E070000D94B2F10D94B2F10D94B2F10D94B2F190
:10E080000D94B2F10D94B2F10D94B2F10D94B2F180
:10E090000D94B2F10D94B2F10D94B2F10D94B2F170
:10E0A0000D94B2F10D94B2F10D94B2F10D94B2F160
:10E0B0000D94B2F10D94B2F10D94B2F10D94B2F150
:10E0C0000D94B2F10D94B2F10D94B2F10D94B2F140
:10E0D0000D94B2F10D94B2F10D94B2F10D94B2F130
:10E0E0000D94B2F141546D656761323536300041AF
:10E0F000726475696E6F206578706C6F72657220DE
:10E1000073746B3530305632206279204D4C530099
:10E11000426F6F746C6F616465723E004875683F52
:10E1200000436F6D70696C6564206F6E203D200048
:10E130004350552054797065202020203D20005FF9
:10E140005F4156525F415243485F5F3D2000415658
:10E1500052204C696243205665723D20004743437C
:10E160002056657273696F6E203D20004350552024
:10E1700049442020202020203D20004C6F7720663D
:10E18000757365202020203D20004869676820665F
:10E190007573652020203D200045787420667573D6
:10E1A00065202020203D20004C6F636B2066757336
:10E1B000652020203D20004D617220203720323024
:10E1C000313300312E362E3800342E332E350056A2
:10E1D00023202020414444522020206F7020636F70
:10E1E00064652020202020696E73747275637469E1
:10E1F0006F6E2061646472202020496E74657272B3
:10E20000757074006E6F20766563746F7200726A49
:10E210006D702020006A6D70200057686174207056
:10E220006F72743A00506F7274206E6F7420737541
:10E2300070706F72746564004D7573742062652030
:10E2400061206C6574746572002000577269747483
:10E25000696E672045450052656164696E672045B7
:10E26000450045452065727220636E743D00504F35
:10E27000525400303D5A65726F2061646472003FF1
:10E280003D43505520737461747300403D454550C3
:10E29000524F4D207465737400423D426C696E6B41
:10E2A000204C454400453D44756D70204545505215
:10E2B0004F4D00463D44756D7020464C415348001B
:10E2C000483D48656C70004C3D4C69737420492F83
:10E2D0004F20506F72747300513D51756974005234
:10E2E0003D44756D702052414D00563D73686F7707
:10E2F00020696E7465727275707420566563746FF0
:10E30000727300593D506F727420626C696E6B00BD
:10E310002A0011241FBECFEFD1E2DEBFCDBF01E046
:10E320000CBF12E0A0E0B2E0EEE1FDEF03E00BBFB6
:10E3300002C007900D92A030B107D9F712E0A0E01B
:10E34000B2E001C01D92AE30B107E1F70F9460F367
:10E350000D948DFE01E20EBF0FEF0DBF11241FBE05
:10E360000D9460F30D9400F020E030E040ED57E0B4
:10E3700005C0FA013197F1F72F5F3F4F2817390792
:10E38000C0F308959C01260F311DC901A0E0B0E043
:10E390002F5F3F4FABBFFC018791882361F08093D3
:10E3A000C6008091C00086FFFCCF8091C0008064D1
:10E3B0008093C000EACF08958DE08093C6008091DD
:10E3C000C00086FFFCCF8091C00080648093C000B5
:10E3D0008AE08093C6008091C00086FFFCCF8091C8
:10E3E000C00080648093C00008950F94C2F10F9420
:10E3F000DCF10895FC019081992359F09093C600B7
:10E400008091C00086FFFCCF8091C0008064809323
:10E41000C0003196992379F70895282F982F929567
:10E420009F70892F805D8A3308F0895F8093C600D2
:10E430008091C00086FFFCCF8091C00080648093F3
:10E44000C000822F8F70982F905D9A3308F0995FEB
:10E450009093C6008091C00086FFFCCF8091C000E1
:10E4600080648093C00008959C01FB01853691056E
:10E470001CF46330710594F0C90164E670E00F94F8
:10E480002EFE605D7F4F6093C6008091C00086FFC6
:10E49000FCCF8091C00080648093C0002B30310598
:10E4A00014F43297B4F0C90164E670E00F942EFEC4
:10E4B0006AE070E00F942EFE605D7F4F6093C600AF
:10E4C0008091C00086FFFCCF8091C0008064809363
:10E4D000C000C9016AE070E00F942EFEC0968093E0
:10E4E000C6008091C00086FFFCCF8091C000806490
:10E4F0008093C00008951F93182F8EE692EE60E07F
:10E500000F94C2F11093C6008091C00086FFFCCF2B
:10E510008091C00080648093C0000F94DCF11F9153
:10E5200008952F923F924F925F926F927F928F92B7
:10E530009F92AF92BF92CF92DF92EF92FF920F9392
:10E540001F93DF93CF93CDB7DEB762970FB6F894E2
:10E55000DEBF0FBECDBF382E622ECA01DB015C01CB
:10E560006D01772420E2222E2E010894411C511CBB
:10E570008BC081E0A81680E0B80681E0C80680E084
:10E58000D80628F0C601AA27BB270F940DF2BB2797
:10E59000AD2D9C2D8B2D0F940DF28A2D0F940DF225
:10E5A0002092C6008091C00086FFFCCF8091C00001
:10E5B00080648093C0009DE29093C6008091C0006B
:10E5C00086FFFCCF8091C00080648093C0002092C1
:10E5D000C6008091C00086FFFCCF8091C00080649F
:10E5E0008093C00019828601750188249924A1E0D6
:10E5F0003A1651F03A1620F0B2E03B1661F409C029
:10E600000BBFF701779007C0C7010F9477FE782EF4
:10E6100002C0F7017080872D0F940DF22092C60082
:10E620008091C00086FFFCCF8091C0008064809301
:10E63000C000872D8052F401EF70F0708F3520F408
:10E64000E40DF51D708204C0E40DF51D8EE280839B
:10E650000894E11CF11C011D111D0894811C911CE2
:10E6600090E18916910409F0C2CF80E190E0A0E02A
:10E67000B0E0A80EB91ECA1EDB1E198AC2010F9493
:10E68000FAF10F94DCF16A94662009F072CF629679
:10E690000FB6F894DEBF0FBECDBFCF91DF911F91B3
:10E6A0000F91FF90EF90DF90CF90BF90AF909F9031
:10E6B0008F907F906F905F904F903F902F90089534
:10E6C0002F923F924F925F926F927F928F929F9282
:10E6D000AF92BF92CF92DF92EF92FF920F931F9370
:10E6E000DF93CF93CDB7DEB7CD53D1400FB6F894BB
:10E6F000DEBF0FBECDBF01E20EBF0FEF0DBF94B75F
:10E70000F894A89514BE80916000886180936000A1
:10E7100010926000789493FF05C0E0910002F091A0
:10E7200001021995279A2F9A8091C00082608093E8
:10E73000C00080E18093C40088E18093C1000000A4
:10E74000EE24FF24870144E0A42EB12CCC24DD2448
:10E7500024C0C5010197F1F70894E11CF11C011DCB
:10E76000111D21E2E2162EE4F20620E0020720E06D
:10E77000120718F031E0C32ED12CC801B70127ECE5
:10E780003BE140E050E00F9441FE611571058105C9
:10E79000910519F485B1805885B98091C00087FD35
:10E7A00003C0C114D104A9F2A6014F5F5F4FC25E3E
:10E7B000DE4F59834883CE51D140C25EDE4F8881FF
:10E7C0009981CE51D140019711F00D9410FEC05D9A
:10E7D000DE4F19821882C053D14060E0C15DDE4F28
:10E7E0001882CF52D14088249924C35DDE4F19820C
:10E7F0001882CD52D140C05EDE4F188219821A8233
:10E800001B82C052D140CE5CDE4F188219821A8220
:10E810001B82C253D140EE24FF2487010BBFF701B6
:10E8200007911691C45CDE4F19830883CC53D14005
:10E830000D940BFEC25EDE4F28813981CE51D1404E
:10E840002130310509F52091C600C25EDE4F1982E4
:10E850001882CE51D14022C02F5F3F4F4F4F5F4FA4
:10E86000213082E138078AE7480780E0580780F0C6
:10E87000C45CDE4FE881F981CC53D140EF5FFF4F9C
:10E8800019F0EE27FF27099420E030E040E050E047
:10E890008091C00087FFE0CF2091C600C35DDE4FAE
:10E8A00048815981CD52D1404F5F5F4FC35DDE4FEC
:10E8B00059834883CD52D140213209F063C64A3092
:10E8C000510508F05FC60894811C911C53E0851621
:10E8D000910409F059C600E010E018C081E280936D
:10E8E000C6008091C00086FFFCCF8091C00080648C
:10E8F0008093C0002F5F3F4F2931310579F70F9486
:10E90000DCF10F5F1F4F0530110519F020E030E0FA
:10E91000E5CF10920A0210920B0210920C02109294
:10E920000D02109206021092070210920802109235
:10E930000902109202021092030210920402109235
:10E9400005028FEE90EE60E00F94F5F180E191EE1C
:10E9500060E00F94C2F18091C00087FFFCCF9091DE
:10E96000C600903608F09F759032B8F09093C600BC
:10E970008091C00086FFFCCF8091C00080648093AE
:10E98000C000A0E2A093C6008091C00086FFFCCF2B
:10E990008091C00080648093C000983409F4D7C18E
:10E9A0009934B8F4923409F459C1933458F490333B
:10E9B00019F1903308F4E3C59F33A1F1903409F0C5
:10E9C000DEC5BDC0953409F470C1963409F0D7C5D1
:10E9D00098C1923509F42BC2933538F49C3409F46C
:10E9E000F5C1913509F0CBC518C2963509F445C279
:10E9F000993509F0C4C567C483E792EE62E00F94CD
:10EA0000F5F110920602109207021092080210927D
:10EA1000090210920A0210920B0210920C0210923C
:10EA20000D0213C18FE792EE62E00F94F5F18FEEC5
:10EA300090EE60E00F94F5F181E291EE60E00F94CA
:10EA4000C2F187EB91EE60E00F94F5F180E391EE77
:10EA500060E00F94C2F184EE90EE60E00F94F5F167
:10EA60008FE391EE60E00F94C2F186E090E061E008
:10EA700070E00F9434F20F94DCF18DE591EE60E0DC
:10EA80000F94C2F189EC91EE60E00F94F5F18EE401
:10EA900091EE60E00F94C2F183EC91EE60E00F9490
:10EAA000F5F18CE691EE60E00F94C2F18EE10F94E7
:10EAB0000DF288E90F940DF281E00F940DF20F949E
:10EAC000DCF18BE791EE60E00F94C2F119E0E0E039
:10EAD000F0E010935700E4918E2F0F940DF20F94F5
:10EAE000DCF18AE891EE60E00F94C2F1E3E0F0E03F
:10EAF00010935700E4918E2F0F940DF20F94DCF1D8
:10EB000089E991EE60E00F94C2F1E2E0F0E0109349
:10EB10005700E4918E2F0F940DF20F94DCF188EAE8
:10EB200091EE60E00F94C2F1E1E0F0E01093570045
:10EB30001491812F0F940DF20F94DCF107CF8BE825
:10EB400092EE62E00F94F5F18BE492EE60E00F94A8
:10EB5000F5F10F94DCF100E010E019C0C8016F2D51
:10EB60000F947FFEFF2031F489E492EE60E00F9471
:10EB7000C2F10BC0F092C6008091C00086FFFCCFAE
:10EB80008091C00080648093C0000F5F1F4FC80158
:10EB900081519F41A0E0B0E0ABBFFC01F790BAE229
:10EBA000FB1621F0E2E000301E07C1F60F94DCF105
:10EBB0000F94DCF187E592EE60E00F94F5F10F948D
:10EBC000DCF1CC24DD2400E010E01EC0C8010F946D
:10EBD00077FEF82E882331F489E492EE60E00F94FA
:10EBE000C2F10BC08093C6008091C00086FFFCCFAD
:10EBF0008091C00080648093C000FE1419F00894D6
:10EC0000C11CD11C0F5F1F4FC80181519F41A0E063
:10EC1000B0E0ABBFFC01E790FAE2EF1621F022E092
:10EC20000030120799F60F94DCF10F94DCF182E6C4
:10EC300092EE60E00F94C2F1C60161E070E00F94C3
:10EC400034F20F94DCF10F94DCF110920202109276
:10EC50000302109204021092050278CE89E992EE26
:10EC600062E00F94F5F1279A2F9A16C02F9880E052
:10EC700090E0E0EDF7E03197F1F7019684369105E9
:10EC8000C1F72F9A80E090E0E0EDF7E03197F1F7DF
:10EC9000019684369105C1F78091C00087FFE6CFC9
:10ECA0008091C00087FFFCCF64C485EA92EE62E0E9
:10ECB0000F94F5F140910202509103026091040219
:10ECC0007091050281E020E10F9491F2809102029F
:10ECD00090910302A0910402B091050280509F4FD1
:10ECE000AF4FBF4F8093020290930302A0930402A0
